:100000000C9438000C9455000C9455000C94550039
:100010000C9455000C9455000C9455000C9455000C
:100020000C9455000C9455000C9455000C945500FC
:100030000C9455000C9455000C9455000C945500EC
:100040000C9455000C9455000C9455000C945500DC
:100050000C9455000C9455000C9455000C945500CC
:100060000C9455000C9455000C9455000C945500BC
:1000700011241FBECFEFD0E1DEBFCDBF13E0A0E063
:10008000B1E0E4ECFBE002C005900D92A237B107AD
:10009000D9F724E0A2E7B3E001C01D92AD33B20767
:1000A000E1F70E9405020C94E0050C9400000E9408
:1000B0006200E7E3F4E080E091E09383828395833C
:1000C000848308958EE18093C4001092C500E1EC12
:1000D000F0E0808188608083E2ECF0E080818460E1
:1000E0008083808182608083089A0895CF93C82F8F
:1000F0008A3021F48DE00E94760002C080E090E01A
:100100002091C00025FFFCCFC093C600CF91089579
:10011000DB0180E1489FA00DB11D1124EEE1F1E06B
:100120008D9190818927819381E0EE32F807C1F7A4
:100130000895FC0140962081DB01A20FB11D2C9196
:1001400021938E179F07B9F70895FC013585268501
:1001500092858381418545874581418741814583DA
:100160003183368136873281328726839283978125
:10017000938393859783978593878787089590E0E6
:100180002BE1662351F060FD982787FF03C0880F9D
:10019000822701C0880F6695F4CF892F0895BF92FA
:1001A000CF92DF92EF92FF920F931F93CF93DF9343
:1001B000EC017C0180E1E80EF11CB880C980DA8096
:1001C0006B2D8EE00E94BF00182F6C2D8BE00E94DB
:1001D000BF0018276D2D8DE00E94BF0018270B81EE
:1001E000602F89E00E94BF00812788836B2D89E002
:1001F0000E94BF00182F6C2D8EE00E94BF001827B0
:100200006D2D8BE00E94BF001827602F8DE00E94AB
:10021000BF00812789836B2D8DE00E94BF00182FBE
:100220006C2D89E00E94BF0018276D2D8EE00E9482
:10023000BF001827602F8BE00E94BF0081278A83B0
:100240006B2D8BE00E94BF00182F6C2D8DE00E945B
:10025000BF0018276D2D89E00E94BF001827602F6E
:100260008EE00E94BF0081278B832496CE15DF0588
:1002700009F0A3CFDF91CF911F910F91FF90EF90E5
:10028000DF90CF90BF900895CF93DF93DC0190E192
:10029000FB0101900D929A95E1F7EB0180E1A889AD
:1002A000B0E0EC85F0E094E001900D929A95E1F7D2
:1002B000982F9F7009F56B899989988B7A89798B2A
:1002C0006A8BFA01E90FF11D9081988BFA01E70F13
:1002D000F11D7081798BFA01E60FF11D60816A8B47
:1002E00060816B8B682F62956F70F901E60FF11DCD
:1002F000319760819627988B688998819627988B8B
:10030000698999819627998B6A899A8196279A8B10
:100310006B899B8196279B8B8C5F2496803B09F091
:10032000BECFDF91CF910895CF93DC0190E1FB0127
:1003300001900D929A95E1F74AE067E773E087E252
:1003400094E00E948800C9E087E294E00E94A50042
:1003500068E371E087E294E00E9499004C2F67E720
:1003600073E087E294E00E94880087E294E00E94B4
:10037000CF00C15049F787E294E00E94A50068E3EE
:1003800071E087E294E00E94990040E067E773E043
:1003900087E294E0CF910C948800FC018581089558
:1003A000FC0195818481981798F48381A081B181A3
:1003B000A80FB11D6C93838190E00196648170E079
:1003C0000E94DA02838385818F5F858380E00895B0
:1003D00081E00895FC0185818823A9F08281A081B4
:1003E000B181A80FB11D8C91DB018C93828190E0CB
:1003F0000196648170E00E94DA02828385818150D7
:10040000858380E0089581E00895CF93DF93CDB791
:10041000DEB727970FB6F894DEBF0FBECDBF0F9A99
:100420000E9457001F82CE0101963C0186E0F30135
:1004300011928A95E9F782E793E09A83898385E0B0
:100440008D8310E058E3C52E53E0D52E61E4E62EEF
:1004500063E0F62E612FC3010E94D0011F928F939B
:10046000DF92CF920E940203C3010E94CD011F922E
:100470008F93FF92EF920E9402031F5F0FB6F894D2
:10048000DEBF0FBECDBF163029F700E010E09BE4C1
:10049000C92E93E0D92E21E4E22E23E0F22E35E599
:1004A000A32E33E0B32E48E3842E43E0942EBE0106
:1004B000695F7F4FC3010E94EA011F928F93DF9211
:1004C000CF920E940203C3010E94CD011F928F931D
:1004D000FF92EF920E9402038F811F928F93BF922F
:1004E000AF920E9402030FB6F894DEBF0FBECDBFDD
:1004F00001151105C1F460E0C3010E94D0011F92F3
:100500008F939F928F920E940203C3010E94CD019C
:100510001F928F93FF92EF920E9402030FB6F894FE
:10052000DEBF0FBECDBF0F5F1F4F0630110509F0B4
:10053000BECF2EE231E048E352E067E773E08EE0A1
:1005400091E00E9444019FE3EDE0F3E09150E04030
:10055000F040E1F700C0000047E753E067E274E0D5
:100560008EE191E00E9494012FE38DE093E0215011
:1005700080409040E1F700C0000010E18FE5E82ED8
:1005800083E0F82E80912C041F928F93FF92EF92BC
:100590000E94020311500F900F900F900F9091F74F
:1005A00082B1805882B9E3ECF9E03197F1F700C0ED
:1005B0000000F6CF97FB072E16F4009407D077FDC6
:1005C00009D00E94EE0207FC05D03EF4909581957B
:1005D0009F4F0895709561957F4F0895AA1BBB1B8F
:1005E00051E107C0AA1FBB1FA617B70710F0A61B33
:1005F000B70B881F991F5A95A9F780959095BC0154
:10060000CD010895A0E0B0E0E8E0F3E00C94B90576
:10061000AE014B5F5F4FFA0161917191AF01809123
:10062000390490913A040E941803E2E00C94D50535
:10063000ABE0B0E0EEE1F3E00C94A9056C017B01C6
:100640008A01FC0117821682838181FFCCC1CE0111
:1006500001963C01F6019381F70193FD859193FF8B
:1006600081917F01882309F4BAC1853239F493FD61
:10067000859193FF81917F01853229F4B60190E045
:100680000E940F05E7CF912C212C312CFFE1F315AF
:10069000D8F08B3279F038F4803279F08332A1F4DB
:1006A000232D20611DC08D3261F0803369F4232D2C
:1006B000216016C0832D8260382EE32DE4603E2E2B
:1006C0002AC0F32DF8601DC037FC2DC020ED280F87
:1006D0002A3040F08E32B9F436FC81C1232D2064DB
:1006E000322E19C036FE06C08AE0989E200D1124D5
:1006F000922E11C0EAE02E9E200D1124222EF32D01
:10070000F0623F2E08C08C3621F4832D8068382E8D
:1007100002C0883641F4F70193FD859193FF8191E2
:100720007F018111B3CF982F9F7D9554933028F48A
:100730000C5F1F4F9FE399830DC0833631F08337E1
:1007400071F0833509F059C021C0F8018081898397
:100750000E5F1F4F88248394912C530113C02801EE
:10076000F2E04F0E511CF801A080B18036FE03C0AC
:10077000692D70E002C06FEF7FEFC5010E94040594
:100780004C018201F32DFF773F2E16C0280122E095
:10079000420E511CF801A080B18036FE03C0692DC5
:1007A00070E002C06FEF7FEFC5010E94F9044C01B9
:1007B000F32DF0683F2E820133FC1BC0822D90E0A8
:1007C00088169906B0F4B60180E290E00E940F0509
:1007D0002A94F4CFF50137FC859137FE81915F01B2
:1007E000B60190E00E940F0521102A9421E0821AA0
:1007F00091088114910471F7E8C0843611F08936AC
:1008000041F5F80137FE07C06081718182819381D3
:100810000C5F1F4F08C060817181072E000C880B90
:10082000990B0E5F1F4FF32DFF763F2E97FF09C0E8
:1008300090958095709561957F4F8F4F9F4FF06891
:100840003F2E2AE030E0A3010E944B05882E861837
:1008500045C0853731F4232D2F7EB22E2AE030E0BB
:1008600025C0932D997FB92E8F36C1F018F48835A5
:1008700079F0B5C0803719F0883721F0B0C0E92F82
:10088000E061BE2EB4FE0DC0FB2DF460BF2E09C08A
:1008900034FE0AC0292F2660B22E06C028E030E0C0
:1008A00005C020E130E002C020E132E0F801B7FEEF
:1008B00007C060817181828193810C5F1F4F06C0E8
:1008C0006081718180E090E00E5F1F4FA3010E9464
:1008D0004B05882E8618FB2DFF773F2E36FE0DC068
:1008E000232D2E7FA22E891458F434FE0BC032FC27
:1008F00009C0832D8E7EA82E05C0B82CA32C03C062
:10090000B82C01C0B92CA4FE0FC0FE01E80DF11DEA
:100910008081803321F49A2D997EA92E09C0A2FEF0
:1009200006C0B394B39404C08A2D867809F0B394BA
:10093000A3FC11C0A0FE06C0B21488F4280C922CAF
:100940009B180EC0B21460F4B60180E290E00E94E1
:100950000F05B394F7CFB21418F42B1802C0982CDB
:10096000212CA4FE10C0B60180E390E00E940F0588
:10097000A2FE17C0A1FC03C088E790E002C088E592
:1009800090E0B6010CC08A2D867859F0A1FE02C015
:100990008BE201C080E2A7FC8DE2B60190E00E94EC
:1009A0000F05891438F4B60180E390E00E940F052A
:1009B0009A94F7CF8A94F301E80DF11D8081B60176
:1009C00090E00E940F058110F5CF222009F442CE5D
:1009D000B60180E290E00E940F052A94F6CFF6015E
:1009E0008681978102C08FEF9FEF2B96E2E10C94F6
:1009F000C505FC010590615070400110D8F7809545
:100A000090958E0F9F1F0895FC01615070400190DA
:100A10000110D8F7809590958E0F9F1F08950F9322
:100A20001F93CF93DF93FB01238121FD03C08FEF41
:100A30009FEF2CC022FF16C046815781248135814B
:100A40004217530744F4A081B1819D012F5F3F4FAE
:100A5000318320838C93268137812F5F3F4F3783EB
:100A6000268314C08B01EC01FB010084F185E02D8D
:100A70000995892BE1F6D80116968D919C911797CF
:100A8000019617969C938E931697CE01DF91CF9186
:100A90001F910F910895FA01AA27283051F12031B2
:100AA00081F1E8946F936E7F6E5F7F4F8F4F9F4F02
:100AB000AF4FB1E03ED0B4E03CD0670F781F891F44
:100AC0009A1FA11D680F791F8A1F911DA11D6A0F12
:100AD000711D811D911DA11D20D009F468943F91C5
:100AE0002AE0269F11243019305D3193DEF6CF01C4
:100AF0000895462F4770405D4193B3E00FD0C9F78A
:100B0000F6CF462F4F70405D4A3318F0495D31FDF6
:100B10004052419302D0A9F7EACFB4E0A695979549
:100B2000879577956795BA95C9F70097610571051F
:100B300008959B01AC010A2E069457954795379569
:100B40002795BA95C9F7620F731F841F951FA01DC3
:100B500008952F923F924F925F926F927F928F9261
:100B60009F92AF92BF92CF92DF92EF92FF920F933C
:100B70001F93CF93DF93CDB7DEB7CA1BDB0B0FB646
:100B8000F894DEBF0FBECDBF09942A883988488803
:100B90005F846E847D848C849B84AA84B984C88499
:100BA000DF80EE80FD800C811B81AA81B981CE0F90
:100BB000D11D0FB6F894DEBF0FBECDBFED01089575
:040BC000F894FFCFD7
:100BC40000000002000000007600000000000001A8
:100BD40002030405060708090A0B0C0D0E0F52093F
:100BE4006AD53036A538BF40A39E81F3D7FB0102F6
:100BF4000408102040801B3652096AD53036A538C7
:100C0400BF40A39E81F3D7FB7CE339829B2FFF87F0
:100C1400348E4344C4DEE9CB547B9432A6C2233DD4
:100C2400EE4C950B42FAC34E082EA16628D924B285
:100C3400765BA2496D8BD12572F8F66486689816A6
:100C4400D4A45CCC5D65B6926C704850FDEDB9DA05
:100C54005E154657A78D9D8490D8AB008CBCD30AF3
:100C6400F7E45805B8B34506D02C1E8FCA3F0F02CF
:100C7400C1AFBD0301138A6B3A9111414F67DCEA9E
:100C840097F2CFCEF0B4E67396AC7422E7AD358517
:100C9400E2F937E81C75DF6E47F11A711D29C58921
:100CA4006FB7620EAA18BE1BFC563E4BC6D2792003
:100CB4009ADBC0FE78CD5AF41FDDA8338807C7310C
:100CC400B11210592780EC5F60517FA919B54A0D04
:100CD4002DE57A9F93C99CEFA0E03B4DAE2AF5B079
:100CE400C8EBBB3C83539961172B047EBA77D62695
:100CF400E169146355210C7D637C777BF26B6FC5CE
:100D04003001672BFED7AB76CA82C97DFA5947F00A
:100D1400ADD4A2AF9CA472C0B7FD9326363FF7CCE6
:100D240034A5E5F171D8311504C723C31896059A83
:100D3400071280E2EB27B27509832C1A1B6E5AA0A6
:100D4400523BD6B329E32F8453D100ED20FCB15B91
:100D54006ACBBE394A4C58CFD0EFAAFB434D3385FA
:100D640045F9027F503C9FA851A3408F929D38F5CE
:100D7400BCB6DA2110FFF3D2CD0C13EC5F97441705
:100D8400C4A77E3D645D197360814FDC222A90887C
:100D940046EEB814DE5E0BDBE0323A0A4906245C08
:100DA400C2D3AC629195E479E7C8376D8DD54EA96D
:100DB4006C56F4EA657AAE08BA78252E1CA6B4C639
:100DC400E8DD741F4BBD8B8A703EB5664803F60E92
:100DD400613557B986C11D9EE1F8981169D98E9481
:100DE4009B1E87E9CE5528DF8CA1890DBFE642689A
:100DF40041992D0FB054BB164164643A20256F0A03
:100E04000066696C6C3A20256F0A00526561643A89
:100E140020256F0A00446174613A20256F0A00504E
:100E24006C61696E205465787420697320256F0A9B
:020E34000000BC
:00000001FF
